{
  "contractName": "Election",
  "abi": [
    {
      "inputs": [],
      "stateMutability": "nonpayable",
      "type": "constructor"
    },
    {
      "anonymous": false,
      "inputs": [
        {
          "indexed": true,
          "internalType": "uint256",
          "name": "electionId",
          "type": "uint256"
        },
        {
          "indexed": true,
          "internalType": "uint256",
          "name": "candidateId",
          "type": "uint256"
        }
      ],
      "name": "VoteCasted",
      "type": "event"
    },
    {
      "inputs": [],
      "name": "electionCount",
      "outputs": [
        {
          "internalType": "uint256",
          "name": "",
          "type": "uint256"
        }
      ],
      "stateMutability": "view",
      "type": "function",
      "constant": true
    },
    {
      "inputs": [
        {
          "internalType": "uint256",
          "name": "",
          "type": "uint256"
        }
      ],
      "name": "elections",
      "outputs": [
        {
          "internalType": "uint256",
          "name": "id",
          "type": "uint256"
        },
        {
          "internalType": "string",
          "name": "name",
          "type": "string"
        },
        {
          "internalType": "enum Election.ElectionState",
          "name": "state",
          "type": "uint8"
        },
        {
          "internalType": "uint256",
          "name": "candidatesCount",
          "type": "uint256"
        },
        {
          "internalType": "uint256",
          "name": "votersCount",
          "type": "uint256"
        }
      ],
      "stateMutability": "view",
      "type": "function",
      "constant": true
    },
    {
      "inputs": [],
      "name": "owner",
      "outputs": [
        {
          "internalType": "address",
          "name": "",
          "type": "address"
        }
      ],
      "stateMutability": "view",
      "type": "function",
      "constant": true
    },
    {
      "inputs": [
        {
          "internalType": "string",
          "name": "_name",
          "type": "string"
        }
      ],
      "name": "createElection",
      "outputs": [],
      "stateMutability": "nonpayable",
      "type": "function"
    },
    {
      "inputs": [
        {
          "internalType": "uint256",
          "name": "electionId",
          "type": "uint256"
        },
        {
          "internalType": "string",
          "name": "_name",
          "type": "string"
        },
        {
          "internalType": "string",
          "name": "_gender",
          "type": "string"
        }
      ],
      "name": "addCandidate",
      "outputs": [],
      "stateMutability": "nonpayable",
      "type": "function"
    },
    {
      "inputs": [
        {
          "internalType": "uint256",
          "name": "electionId",
          "type": "uint256"
        },
        {
          "internalType": "address",
          "name": "_voter",
          "type": "address"
        }
      ],
      "name": "addVoter",
      "outputs": [],
      "stateMutability": "nonpayable",
      "type": "function"
    },
    {
      "inputs": [
        {
          "internalType": "uint256",
          "name": "electionId",
          "type": "uint256"
        }
      ],
      "name": "startElection",
      "outputs": [],
      "stateMutability": "nonpayable",
      "type": "function"
    },
    {
      "inputs": [
        {
          "internalType": "uint256",
          "name": "electionId",
          "type": "uint256"
        }
      ],
      "name": "endElection",
      "outputs": [],
      "stateMutability": "nonpayable",
      "type": "function"
    },
    {
      "inputs": [
        {
          "internalType": "uint256",
          "name": "electionId",
          "type": "uint256"
        },
        {
          "internalType": "uint256",
          "name": "_candidateId",
          "type": "uint256"
        }
      ],
      "name": "vote",
      "outputs": [],
      "stateMutability": "nonpayable",
      "type": "function"
    },
    {
      "inputs": [
        {
          "internalType": "uint256",
          "name": "electionId",
          "type": "uint256"
        },
        {
          "internalType": "uint256",
          "name": "_candidateId",
          "type": "uint256"
        }
      ],
      "name": "getCandidateDetails",
      "outputs": [
        {
          "internalType": "string",
          "name": "",
          "type": "string"
        },
        {
          "internalType": "uint256",
          "name": "",
          "type": "uint256"
        },
        {
          "internalType": "string",
          "name": "",
          "type": "string"
        }
      ],
      "stateMutability": "view",
      "type": "function",
      "constant": true
    },
    {
      "inputs": [
        {
          "internalType": "uint256",
          "name": "electionId",
          "type": "uint256"
        },
        {
          "internalType": "address",
          "name": "_current",
          "type": "address"
        }
      ],
      "name": "getRole",
      "outputs": [
        {
          "internalType": "uint256",
          "name": "",
          "type": "uint256"
        }
      ],
      "stateMutability": "view",
      "type": "function",
      "constant": true
    },
    {
      "inputs": [],
      "name": "getAllElections",
      "outputs": [
        {
          "internalType": "uint256[]",
          "name": "",
          "type": "uint256[]"
        },
        {
          "internalType": "string[]",
          "name": "",
          "type": "string[]"
        },
        {
          "internalType": "enum Election.ElectionState[]",
          "name": "",
          "type": "uint8[]"
        }
      ],
      "stateMutability": "view",
      "type": "function",
      "constant": true
    },
    {
      "inputs": [
        {
          "internalType": "uint256",
          "name": "electionId",
          "type": "uint256"
        }
      ],
      "name": "deleteElection",
      "outputs": [],
      "stateMutability": "nonpayable",
      "type": "function"
    }
  ],
  "bytecode": "0x608060405260006001553480156200001657600080fd5b50336000806101000a81548173ffffffffffffffffffffffffffffffffffffffff021916908373ffffffffffffffffffffffffffffffffffffffff1602179055506200009d6040518060400160405280601081526020017f44656661756c7420456c656374696f6e00000000000000000000000000000000815250620000a360201b60201c565b62000447565b60008054906101000a900473ffffffffffffffffffffffffffffffffffffffff1673ffffffffffffffffffffffffffffffffffffffff163373ffffffffffffffffffffffffffffffffffffffff161462000134576040517f08c379a00000000000000000000000000000000000000000000000000000000081526004016200012b906200030c565b60405180910390fd5b6000600260006001548152602001908152602001600020905060015481600001819055508181600101908051906020019062000172929190620001d5565b5060008160020160006101000a81548160ff021916908360028111156200019e576200019d6200032e565b5b0217905550600081600401819055506000816006018190555060016000815480929190620001cc9062000396565b91905055505050565b828054620001e39062000412565b90600052602060002090601f01602090048101928262000207576000855562000253565b82601f106200022257805160ff191683800117855562000253565b8280016001018555821562000253579182015b828111156200025257825182559160200191906001019062000235565b5b50905062000262919062000266565b5090565b5b808211156200028157600081600090555060010162000267565b5090565b600082825260208201905092915050565b7f4f6e6c79206f776e65722063616e20706572666f726d2074686973206163746960008201527f6f6e000000000000000000000000000000000000000000000000000000000000602082015250565b6000620002f460228362000285565b9150620003018262000296565b604082019050919050565b600060208201905081810360008301526200032781620002e5565b9050919050565b7f4e487b7100000000000000000000000000000000000000000000000000000000600052602160045260246000fd5b7f4e487b7100000000000000000000000000000000000000000000000000000000600052601160045260246000fd5b6000819050919050565b6000620003a3826200038c565b91507fffffffffffffffffffffffffffffffffffffffffffffffffffffffffffffffff8203620003d857620003d76200035d565b5b600182019050919050565b7f4e487b7100000000000000000000000000000000000000000000000000000000600052602260045260246000fd5b600060028204905060018216806200042b57607f821691505b602082108103620004415762000440620003e3565b5b50919050565b6124dd80620004576000396000f3fe608060405234801561001057600080fd5b50600436106100cf5760003560e01c80638da5cb5b1161008c5780639c98bcbb116100665780639c98bcbb14610204578063b384abef14610220578063e4801f391461023c578063e6c62efc1461026e576100cf565b80638da5cb5b1461019857806393552a3d146101b6578063997d2830146101e6576100cf565b806309391321146100d457806315cf4a5f146100f05780635e6fef011461010c5780636d32dc4b14610140578063740c47d41461015c5780637fd5f26814610178575b600080fd5b6100ee60048036038101906100e991906116b2565b61028a565b005b61010a60048036038101906101059190611838565b610509565b005b61012660048036038101906101219190611881565b610631565b6040516101379594939291906119bc565b60405180910390f35b61015a60048036038101906101559190611881565b6106fc565b005b61017660048036038101906101719190611881565b610856565b005b6101806109c2565b60405161018f93929190611c9e565b60405180910390f35b6101a0610c47565b6040516101ad9190611cf9565b60405180910390f35b6101d060048036038101906101cb91906116b2565b610c6b565b6040516101dd9190611d14565b60405180910390f35b6101ee610d4d565b6040516101fb9190611d14565b60405180910390f35b61021e60048036038101906102199190611881565b610d53565b005b61023a60048036038101906102359190611d2f565b610eac565b005b61025660048036038101906102519190611d2f565b611174565b60405161026593929190611d6f565b60405180910390f35b61028860048036038101906102839190611db4565b611346565b005b60008054906101000a900473ffffffffffffffffffffffffffffffffffffffff1673ffffffffffffffffffffffffffffffffffffffff163373ffffffffffffffffffffffffffffffffffffffff1614610318576040517f08c379a000000000000000000000000000000000000000000000000000000000815260040161030f90611eb1565b60405180910390fd5b6000600281111561032c5761032b611945565b5b6002600084815260200190815260200160002060020160009054906101000a900460ff16600281111561036257610361611945565b5b146103a2576040517f08c379a000000000000000000000000000000000000000000000000000000000815260040161039990611f43565b60405180910390fd5b60006002600084815260200190815260200160002090508060050160008373ffffffffffffffffffffffffffffffffffffffff1673ffffffffffffffffffffffffffffffffffffffff16815260200190815260200160002060000160019054906101000a900460ff161561044b576040517f08c379a000000000000000000000000000000000000000000000000000000000815260040161044290611faf565b60405180910390fd5b6040518060400160405280600015158152602001600115158152508160050160008473ffffffffffffffffffffffffffffffffffffffff1673ffffffffffffffffffffffffffffffffffffffff16815260200190815260200160002060008201518160000160006101000a81548160ff02191690831515021790555060208201518160000160016101000a81548160ff0219169083151502179055509050508060060160008154809291906104ff90611ffe565b9190505550505050565b60008054906101000a900473ffffffffffffffffffffffffffffffffffffffff1673ffffffffffffffffffffffffffffffffffffffff163373ffffffffffffffffffffffffffffffffffffffff1614610597576040517f08c379a000000000000000000000000000000000000000000000000000000000815260040161058e90611eb1565b60405180910390fd5b600060026000600154815260200190815260200160002090506001548160000181905550818160010190805190602001906105d3929190611527565b5060008160020160006101000a81548160ff021916908360028111156105fc576105fb611945565b5b021790555060008160040181905550600081600601819055506001600081548092919061062890611ffe565b91905055505050565b600260205280600052604060002060009150905080600001549080600101805461065a90612075565b80601f016020809104026020016040519081016040528092919081815260200182805461068690612075565b80156106d35780601f106106a8576101008083540402835291602001916106d3565b820191906000526020600020905b8154815290600101906020018083116106b657829003601f168201915b5050505050908060020160009054906101000a900460ff16908060040154908060060154905085565b60008054906101000a900473ffffffffffffffffffffffffffffffffffffffff1673ffffffffffffffffffffffffffffffffffffffff163373ffffffffffffffffffffffffffffffffffffffff161461078a576040517f08c379a000000000000000000000000000000000000000000000000000000000815260040161078190611eb1565b60405180910390fd5b6000600281111561079e5761079d611945565b5b6002600083815260200190815260200160002060020160009054906101000a900460ff1660028111156107d4576107d3611945565b5b14610814576040517f08c379a000000000000000000000000000000000000000000000000000000000815260040161080b90612118565b60405180910390fd5b60016002600083815260200190815260200160002060020160006101000a81548160ff0219169083600281111561084e5761084d611945565b5b021790555050565b60008054906101000a900473ffffffffffffffffffffffffffffffffffffffff1673ffffffffffffffffffffffffffffffffffffffff163373ffffffffffffffffffffffffffffffffffffffff16146108e4576040517f08c379a00000000000000000000000000000000000000000000000000000000081526004016108db90611eb1565b60405180910390fd5b6002808111156108f7576108f6611945565b5b6002600083815260200190815260200160002060020160009054906101000a900460ff16600281111561092d5761092c611945565b5b1461096d576040517f08c379a0000000000000000000000000000000000000000000000000000000008152600401610964906121aa565b60405180910390fd5b6002600082815260200190815260200160002060008082016000905560018201600061099991906115ad565b6002820160006101000a81549060ff021916905560048201600090556006820160009055505050565b6060806060600060015467ffffffffffffffff8111156109e5576109e461170d565b5b604051908082528060200260200182016040528015610a135781602001602082028036833780820191505090505b509050600060015467ffffffffffffffff811115610a3457610a3361170d565b5b604051908082528060200260200182016040528015610a6757816020015b6060815260200190600190039081610a525790505b509050600060015467ffffffffffffffff811115610a8857610a8761170d565b5b604051908082528060200260200182016040528015610ab65781602001602082028036833780820191505090505b50905060005b600154811015610c35576002600082815260200190815260200160002060000154848281518110610af057610aef6121ca565b5b602002602001018181525050600260008281526020019081526020016000206001018054610b1d90612075565b80601f0160208091040260200160405190810160405280929190818152602001828054610b4990612075565b8015610b965780601f10610b6b57610100808354040283529160200191610b96565b820191906000526020600020905b815481529060010190602001808311610b7957829003601f168201915b5050505050838281518110610bae57610bad6121ca565b5b60200260200101819052506002600082815260200190815260200160002060020160009054906101000a900460ff16828281518110610bf057610bef6121ca565b5b60200260200101906002811115610c0a57610c09611945565b5b90816002811115610c1e57610c1d611945565b5b815250508080610c2d90611ffe565b915050610abc565b50828282955095509550505050909192565b60008054906101000a900473ffffffffffffffffffffffffffffffffffffffff1681565b60008060026000858152602001908152602001600020905060008054906101000a900473ffffffffffffffffffffffffffffffffffffffff1673ffffffffffffffffffffffffffffffffffffffff168373ffffffffffffffffffffffffffffffffffffffff1603610ce0576001915050610d47565b8060050160008473ffffffffffffffffffffffffffffffffffffffff1673ffffffffffffffffffffffffffffffffffffffff16815260200190815260200160002060000160019054906101000a900460ff1615610d41576002915050610d47565b60039150505b92915050565b60015481565b60008054906101000a900473ffffffffffffffffffffffffffffffffffffffff1673ffffffffffffffffffffffffffffffffffffffff163373ffffffffffffffffffffffffffffffffffffffff1614610de1576040517f08c379a0000000000000000000000000000000000000000000000000000000008152600401610dd890611eb1565b60405180910390fd5b60016002811115610df557610df4611945565b5b6002600083815260200190815260200160002060020160009054906101000a900460ff166002811115610e2b57610e2a611945565b5b14610e6b576040517f08c379a0000000000000000000000000000000000000000000000000000000008152600401610e6290612245565b60405180910390fd5b600280600083815260200190815260200160002060020160006101000a81548160ff02191690836002811115610ea457610ea3611945565b5b021790555050565b60016002811115610ec057610ebf611945565b5b6002600084815260200190815260200160002060020160009054906101000a900460ff166002811115610ef657610ef5611945565b5b14610f36576040517f08c379a0000000000000000000000000000000000000000000000000000000008152600401610f2d906122b1565b60405180910390fd5b60006002600084815260200190815260200160002090508060050160003373ffffffffffffffffffffffffffffffffffffffff1673ffffffffffffffffffffffffffffffffffffffff16815260200190815260200160002060000160019054906101000a900460ff16610fde576040517f08c379a0000000000000000000000000000000000000000000000000000000008152600401610fd59061231d565b60405180910390fd5b8060050160003373ffffffffffffffffffffffffffffffffffffffff1673ffffffffffffffffffffffffffffffffffffffff16815260200190815260200160002060000160009054906101000a900460ff1615611070576040517f08c379a000000000000000000000000000000000000000000000000000000000815260040161106790612389565b60405180910390fd5b806004015482106110b6576040517f08c379a00000000000000000000000000000000000000000000000000000000081526004016110ad906123f5565b60405180910390fd5b80600301600083815260200190815260200160002060020160008154809291906110df90611ffe565b919050555060018160050160003373ffffffffffffffffffffffffffffffffffffffff1673ffffffffffffffffffffffffffffffffffffffff16815260200190815260200160002060000160006101000a81548160ff02191690831515021790555081837f5d4760119c8e8650149aac097d38c70515dfce015031561ad115606533e479be60405160405180910390a3505050565b6060600060606000600260008781526020019081526020016000209050806004015485106111d7576040517f08c379a00000000000000000000000000000000000000000000000000000000081526004016111ce906123f5565b60405180910390fd5b8060030160008681526020019081526020016000206001018160030160008781526020019081526020016000206002015482600301600088815260200190815260200160002060030182805461122c90612075565b80601f016020809104026020016040519081016040528092919081815260200182805461125890612075565b80156112a55780601f1061127a576101008083540402835291602001916112a5565b820191906000526020600020905b81548152906001019060200180831161128857829003601f168201915b505050505092508080546112b890612075565b80601f01602080910402602001604051908101604052809291908181526020018280546112e490612075565b80156113315780601f1061130657610100808354040283529160200191611331565b820191906000526020600020905b81548152906001019060200180831161131457829003601f168201915b50505050509050935093509350509250925092565b60008054906101000a900473ffffffffffffffffffffffffffffffffffffffff1673ffffffffffffffffffffffffffffffffffffffff163373ffffffffffffffffffffffffffffffffffffffff16146113d4576040517f08c379a00000000000000000000000000000000000000000000000000000000081526004016113cb90611eb1565b60405180910390fd5b600060028111156113e8576113e7611945565b5b6002600085815260200190815260200160002060020160009054906101000a900460ff16600281111561141e5761141d611945565b5b1461145e576040517f08c379a000000000000000000000000000000000000000000000000000000000815260040161145590612487565b60405180910390fd5b6000600260008581526020019081526020016000209050600081600401549050604051806080016040528082815260200185815260200160008152602001848152508260030160008381526020019081526020016000206000820151816000015560208201518160010190805190602001906114db929190611527565b50604082015181600201556060820151816003019080519060200190611502929190611527565b5090505081600401600081548092919061151b90611ffe565b91905055505050505050565b82805461153390612075565b90600052602060002090601f016020900481019282611555576000855561159c565b82601f1061156e57805160ff191683800117855561159c565b8280016001018555821561159c579182015b8281111561159b578251825591602001919060010190611580565b5b5090506115a991906115ed565b5090565b5080546115b990612075565b6000825580601f106115cb57506115ea565b601f0160209004906000526020600020908101906115e991906115ed565b5b50565b5b808211156116065760008160009055506001016115ee565b5090565b6000604051905090565b600080fd5b600080fd5b6000819050919050565b6116318161161e565b811461163c57600080fd5b50565b60008135905061164e81611628565b92915050565b600073ffffffffffffffffffffffffffffffffffffffff82169050919050565b600061167f82611654565b9050919050565b61168f81611674565b811461169a57600080fd5b50565b6000813590506116ac81611686565b92915050565b600080604083850312156116c9576116c8611614565b5b60006116d78582860161163f565b92505060206116e88582860161169d565b9150509250929050565b600080fd5b600080fd5b6000601f19601f8301169050919050565b7f4e487b7100000000000000000000000000000000000000000000000000000000600052604160045260246000fd5b611745826116fc565b810181811067ffffffffffffffff821117156117645761176361170d565b5b80604052505050565b600061177761160a565b9050611783828261173c565b919050565b600067ffffffffffffffff8211156117a3576117a261170d565b5b6117ac826116fc565b9050602081019050919050565b82818337600083830152505050565b60006117db6117d684611788565b61176d565b9050828152602081018484840111156117f7576117f66116f7565b5b6118028482856117b9565b509392505050565b600082601f83011261181f5761181e6116f2565b5b813561182f8482602086016117c8565b91505092915050565b60006020828403121561184e5761184d611614565b5b600082013567ffffffffffffffff81111561186c5761186b611619565b5b6118788482850161180a565b91505092915050565b60006020828403121561189757611896611614565b5b60006118a58482850161163f565b91505092915050565b6118b78161161e565b82525050565b600081519050919050565b600082825260208201905092915050565b60005b838110156118f75780820151818401526020810190506118dc565b83811115611906576000848401525b50505050565b6000611917826118bd565b61192181856118c8565b93506119318185602086016118d9565b61193a816116fc565b840191505092915050565b7f4e487b7100000000000000000000000000000000000000000000000000000000600052602160045260246000fd5b6003811061198557611984611945565b5b50565b600081905061199682611974565b919050565b60006119a682611988565b9050919050565b6119b68161199b565b82525050565b600060a0820190506119d160008301886118ae565b81810360208301526119e3818761190c565b90506119f260408301866119ad565b6119ff60608301856118ae565b611a0c60808301846118ae565b9695505050505050565b600081519050919050565b600082825260208201905092915050565b6000819050602082019050919050565b611a4b8161161e565b82525050565b6000611a5d8383611a42565b60208301905092915050565b6000602082019050919050565b6000611a8182611a16565b611a8b8185611a21565b9350611a9683611a32565b8060005b83811015611ac7578151611aae8882611a51565b9750611ab983611a69565b925050600181019050611a9a565b5085935050505092915050565b600081519050919050565b600082825260208201905092915050565b6000819050602082019050919050565b600082825260208201905092915050565b6000611b1c826118bd565b611b268185611b00565b9350611b368185602086016118d9565b611b3f816116fc565b840191505092915050565b6000611b568383611b11565b905092915050565b6000602082019050919050565b6000611b7682611ad4565b611b808185611adf565b935083602082028501611b9285611af0565b8060005b85811015611bce5784840389528151611baf8582611b4a565b9450611bba83611b5e565b925060208a01995050600181019050611b96565b50829750879550505050505092915050565b600081519050919050565b600082825260208201905092915050565b6000819050602082019050919050565b611c158161199b565b82525050565b6000611c278383611c0c565b60208301905092915050565b6000602082019050919050565b6000611c4b82611be0565b611c558185611beb565b9350611c6083611bfc565b8060005b83811015611c91578151611c788882611c1b565b9750611c8383611c33565b925050600181019050611c64565b5085935050505092915050565b60006060820190508181036000830152611cb88186611a76565b90508181036020830152611ccc8185611b6b565b90508181036040830152611ce08184611c40565b9050949350505050565b611cf381611674565b82525050565b6000602082019050611d0e6000830184611cea565b92915050565b6000602082019050611d2960008301846118ae565b92915050565b60008060408385031215611d4657611d45611614565b5b6000611d548582860161163f565b9250506020611d658582860161163f565b9150509250929050565b60006060820190508181036000830152611d89818661190c565b9050611d9860208301856118ae565b8181036040830152611daa818461190c565b9050949350505050565b600080600060608486031215611dcd57611dcc611614565b5b6000611ddb8682870161163f565b935050602084013567ffffffffffffffff811115611dfc57611dfb611619565b5b611e088682870161180a565b925050604084013567ffffffffffffffff811115611e2957611e28611619565b5b611e358682870161180a565b9150509250925092565b7f4f6e6c79206f776e65722063616e20706572666f726d2074686973206163746960008201527f6f6e000000000000000000000000000000000000000000000000000000000000602082015250565b6000611e9b6022836118c8565b9150611ea682611e3f565b604082019050919050565b60006020820190508181036000830152611eca81611e8e565b9050919050565b7f43616e6e6f742061646420766f7465727320616674657220656c656374696f6e60008201527f2073746172746564000000000000000000000000000000000000000000000000602082015250565b6000611f2d6028836118c8565b9150611f3882611ed1565b604082019050919050565b60006020820190508181036000830152611f5c81611f20565b9050919050565b7f566f74657220616c726561647920616464656400000000000000000000000000600082015250565b6000611f996013836118c8565b9150611fa482611f63565b602082019050919050565b60006020820190508181036000830152611fc881611f8c565b9050919050565b7f4e487b7100000000000000000000000000000000000000000000000000000000600052601160045260246000fd5b60006120098261161e565b91507fffffffffffffffffffffffffffffffffffffffffffffffffffffffffffffffff820361203b5761203a611fcf565b5b600182019050919050565b7f4e487b7100000000000000000000000000000000000000000000000000000000600052602260045260246000fd5b6000600282049050600182168061208d57607f821691505b6020821081036120a05761209f612046565b5b50919050565b7f456c656374696f6e20616c72656164792073746172746564206f7220656e646560008201527f6400000000000000000000000000000000000000000000000000000000000000602082015250565b60006121026021836118c8565b915061210d826120a6565b604082019050919050565b60006020820190508181036000830152612131816120f5565b9050919050565b7f4f6e6c7920656e64656420656c656374696f6e732063616e2062652064656c6560008201527f7465640000000000000000000000000000000000000000000000000000000000602082015250565b60006121946023836118c8565b915061219f82612138565b604082019050919050565b600060208201905081810360008301526121c381612187565b9050919050565b7f4e487b7100000000000000000000000000000000000000000000000000000000600052603260045260246000fd5b7f456c656374696f6e206e6f7420696e2070726f67726573730000000000000000600082015250565b600061222f6018836118c8565b915061223a826121f9565b602082019050919050565b6000602082019050818103600083015261225e81612222565b9050919050565b7f456c656374696f6e206973206e6f7420696e2070726f67726573730000000000600082015250565b600061229b601b836118c8565b91506122a682612265565b602082019050919050565b600060208201905081810360008301526122ca8161228e565b9050919050565b7f596f7520617265206e6f7420616e20617574686f72697a656420766f74657200600082015250565b6000612307601f836118c8565b9150612312826122d1565b602082019050919050565b60006020820190508181036000830152612336816122fa565b9050919050565b7f596f75206861766520616c726561647920766f74656400000000000000000000600082015250565b60006123736016836118c8565b915061237e8261233d565b602082019050919050565b600060208201905081810360008301526123a281612366565b9050919050565b7f496e76616c69642063616e646964617465204944000000000000000000000000600082015250565b60006123df6014836118c8565b91506123ea826123a9565b602082019050919050565b6000602082019050818103600083015261240e816123d2565b9050919050565b7f43616e6e6f74206164642063616e6469646174657320616674657220656c656360008201527f74696f6e20737461727465640000000000000000000000000000000000000000602082015250565b6000612471602c836118c8565b915061247c82612415565b604082019050919050565b600060208201905081810360008301526124a081612464565b905091905056fea264697066735822122060e554f7a8981207535f35ba6b6c686c3c171c4487c98b844dd9726e8c1a247e64736f6c634300080e0033",
  "immutableReferences": {},
  "source": "// SPDX-License-Identifier: MIT\npragma solidity >=0.4.0 <0.9.0;\n\ncontract Election {\n    enum ElectionState {\n        NotStarted,\n        InProgress,\n        Ended\n    }\n\n    struct Candidate {\n        uint256 id;\n        string name;\n        uint256 voteCount;\n        string gender;\n    }\n\n    struct Voter {\n        bool hasVoted;\n        bool isAuthorized;\n    }\n\n    struct ElectionInstance {\n        uint256 id;\n        string name;\n        ElectionState state;\n        mapping(uint256 => Candidate) candidates;\n        uint256 candidatesCount;\n        mapping(address => Voter) voters;\n        uint256 votersCount;\n    }\n\n    address public owner;\n    uint256 public electionCount = 0;\n    mapping(uint256 => ElectionInstance) public elections;\n\n    constructor() {\n        owner = msg.sender;\n        createElection(\"Default Election\");\n    }\n\n    modifier onlyOwner() {\n        require(msg.sender == owner, \"Only owner can perform this action\");\n        _;\n    }\n\n    event VoteCasted(uint256 indexed electionId, uint256 indexed candidateId);\n\n    function createElection(string memory _name) public onlyOwner {\n        ElectionInstance storage newElection = elections[electionCount];\n        newElection.id = electionCount;\n        newElection.name = _name;\n        newElection.state = ElectionState.NotStarted;\n        newElection.candidatesCount = 0;\n        newElection.votersCount = 0;\n\n        electionCount++;\n    }\n\n    function addCandidate(uint256 electionId, string memory _name, string memory _gender) public onlyOwner {\n        require(elections[electionId].state == ElectionState.NotStarted, \"Cannot add candidates after election started\");\n\n        ElectionInstance storage election = elections[electionId];\n        uint256 candidateId = election.candidatesCount;\n        election.candidates[candidateId] = Candidate(candidateId, _name, 0, _gender);\n        election.candidatesCount++;\n    }\n\n    function addVoter(uint256 electionId, address _voter) public onlyOwner {\n        require(elections[electionId].state == ElectionState.NotStarted, \"Cannot add voters after election started\");\n\n        ElectionInstance storage election = elections[electionId];\n        require(!election.voters[_voter].isAuthorized, \"Voter already added\");\n\n        election.voters[_voter] = Voter(false, true);\n        election.votersCount++;\n\n    }\n\n    function startElection(uint256 electionId) public onlyOwner {\n        require(elections[electionId].state == ElectionState.NotStarted, \"Election already started or ended\");\n\n        elections[electionId].state = ElectionState.InProgress;\n    }\n\n    function endElection(uint256 electionId) public onlyOwner {\n        require(elections[electionId].state == ElectionState.InProgress, \"Election not in progress\");\n\n        elections[electionId].state = ElectionState.Ended;\n    }\n\n    function vote(uint256 electionId, uint256 _candidateId) public {\n        require(elections[electionId].state == ElectionState.InProgress, \"Election is not in progress\");\n        ElectionInstance storage election = elections[electionId];\n\n        require(election.voters[msg.sender].isAuthorized, \"You are not an authorized voter\");\n        require(!election.voters[msg.sender].hasVoted, \"You have already voted\");\n        require(_candidateId < election.candidatesCount, \"Invalid candidate ID\");\n\n        election.candidates[_candidateId].voteCount++;\n        election.voters[msg.sender].hasVoted = true;\n\n        emit VoteCasted(electionId, _candidateId);\n    }\n\n    function getCandidateDetails(uint256 electionId, uint256 _candidateId)\n        public\n        view\n        returns (string memory, uint256, string memory)\n    {\n        ElectionInstance storage election = elections[electionId];\n        require(_candidateId < election.candidatesCount, \"Invalid candidate ID\");\n\n        return (\n            election.candidates[_candidateId].name,\n            election.candidates[_candidateId].voteCount,\n            election.candidates[_candidateId].gender\n        );\n    }\n\n\n    function getRole(uint256 electionId, address _current) public view returns (uint256) {\n        ElectionInstance storage election = elections[electionId];\n\n        if (_current == owner) {\n            return 1; // Owner\n        } else if (election.voters[_current].isAuthorized) {\n            return 2; // Voter\n        } else {\n            return 3; // Unauthorized\n        }\n    }\n\n    // Retrieve details of all elections\n    function getAllElections() public view returns (uint256[] memory, string[] memory, ElectionState[] memory) {\n        uint256[] memory ids = new uint256[](electionCount);\n        string[] memory names = new string[](electionCount);\n        ElectionState[] memory states = new ElectionState[](electionCount);\n\n        for (uint256 i = 0; i < electionCount; i++) {\n            ids[i] = elections[i].id;\n            names[i] = elections[i].name;\n            states[i] = elections[i].state;\n        }\n\n        return (ids, names, states);\n    }\n\n    // Delete an election if it is in the 'Ended' state\n    function deleteElection(uint256 electionId) public onlyOwner {\n        require(elections[electionId].state == ElectionState.Ended, \"Only ended elections can be deleted\");\n        delete elections[electionId];\n    }\n\n}\n",
  "sourcePath": "/Users/divyadhara/Documents/Project_2_blockchain/decentralized-voting-system/contracts/Voting.sol",
  "compiler": {
    "name": "solc",
    "version": "0.8.14+commit.80d49f37.Emscripten.clang"
  },
  "schemaVersion": "3.4.16",
  "updatedAt": "2024-05-06T04:02:53.124Z",
  "networkType": "ethereum",
  "devdoc": {
    "kind": "dev",
    "methods": {},
    "version": 1
  },
  "userdoc": {
    "kind": "user",
    "methods": {},
    "version": 1
  }
}