{
  "contractName": "Election",
  "abi": [
    {
      "inputs": [],
      "stateMutability": "nonpayable",
      "type": "constructor"
    },
    {
      "anonymous": false,
      "inputs": [
        {
          "indexed": true,
          "internalType": "uint256",
          "name": "electionId",
          "type": "uint256"
        },
        {
          "indexed": true,
          "internalType": "uint256",
          "name": "candidateId",
          "type": "uint256"
        }
      ],
      "name": "VoteCasted",
      "type": "event"
    },
    {
      "inputs": [],
      "name": "electionCount",
      "outputs": [
        {
          "internalType": "uint256",
          "name": "",
          "type": "uint256"
        }
      ],
      "stateMutability": "view",
      "type": "function",
      "constant": true
    },
    {
      "inputs": [
        {
          "internalType": "uint256",
          "name": "",
          "type": "uint256"
        }
      ],
      "name": "elections",
      "outputs": [
        {
          "internalType": "uint256",
          "name": "id",
          "type": "uint256"
        },
        {
          "internalType": "string",
          "name": "name",
          "type": "string"
        },
        {
          "internalType": "enum Election.ElectionState",
          "name": "state",
          "type": "uint8"
        },
        {
          "internalType": "uint256",
          "name": "candidatesCount",
          "type": "uint256"
        },
        {
          "internalType": "uint256",
          "name": "votersCount",
          "type": "uint256"
        }
      ],
      "stateMutability": "view",
      "type": "function",
      "constant": true
    },
    {
      "inputs": [],
      "name": "owner",
      "outputs": [
        {
          "internalType": "address",
          "name": "",
          "type": "address"
        }
      ],
      "stateMutability": "view",
      "type": "function",
      "constant": true
    },
    {
      "inputs": [
        {
          "internalType": "string",
          "name": "_name",
          "type": "string"
        }
      ],
      "name": "createElection",
      "outputs": [],
      "stateMutability": "nonpayable",
      "type": "function"
    },
    {
      "inputs": [
        {
          "internalType": "uint256",
          "name": "electionId",
          "type": "uint256"
        },
        {
          "internalType": "string",
          "name": "_name",
          "type": "string"
        }
      ],
      "name": "addCandidate",
      "outputs": [],
      "stateMutability": "nonpayable",
      "type": "function"
    },
    {
      "inputs": [
        {
          "internalType": "uint256",
          "name": "electionId",
          "type": "uint256"
        },
        {
          "internalType": "address",
          "name": "_voter",
          "type": "address"
        }
      ],
      "name": "addVoter",
      "outputs": [],
      "stateMutability": "nonpayable",
      "type": "function"
    },
    {
      "inputs": [
        {
          "internalType": "uint256",
          "name": "electionId",
          "type": "uint256"
        }
      ],
      "name": "startElection",
      "outputs": [],
      "stateMutability": "nonpayable",
      "type": "function"
    },
    {
      "inputs": [
        {
          "internalType": "uint256",
          "name": "electionId",
          "type": "uint256"
        }
      ],
      "name": "endElection",
      "outputs": [],
      "stateMutability": "nonpayable",
      "type": "function"
    },
    {
      "inputs": [
        {
          "internalType": "uint256",
          "name": "electionId",
          "type": "uint256"
        },
        {
          "internalType": "uint256",
          "name": "_candidateId",
          "type": "uint256"
        }
      ],
      "name": "vote",
      "outputs": [],
      "stateMutability": "nonpayable",
      "type": "function"
    },
    {
      "inputs": [
        {
          "internalType": "uint256",
          "name": "electionId",
          "type": "uint256"
        },
        {
          "internalType": "uint256",
          "name": "_candidateId",
          "type": "uint256"
        }
      ],
      "name": "getCandidateDetails",
      "outputs": [
        {
          "internalType": "string",
          "name": "",
          "type": "string"
        },
        {
          "internalType": "uint256",
          "name": "",
          "type": "uint256"
        }
      ],
      "stateMutability": "view",
      "type": "function",
      "constant": true
    },
    {
      "inputs": [
        {
          "internalType": "uint256",
          "name": "electionId",
          "type": "uint256"
        },
        {
          "internalType": "address",
          "name": "_current",
          "type": "address"
        }
      ],
      "name": "getRole",
      "outputs": [
        {
          "internalType": "uint256",
          "name": "",
          "type": "uint256"
        }
      ],
      "stateMutability": "view",
      "type": "function",
      "constant": true
    },
    {
      "inputs": [],
      "name": "getAllElections",
      "outputs": [
        {
          "internalType": "uint256[]",
          "name": "",
          "type": "uint256[]"
        },
        {
          "internalType": "string[]",
          "name": "",
          "type": "string[]"
        },
        {
          "internalType": "enum Election.ElectionState[]",
          "name": "",
          "type": "uint8[]"
        }
      ],
      "stateMutability": "view",
      "type": "function",
      "constant": true
    },
    {
      "inputs": [
        {
          "internalType": "uint256",
          "name": "electionId",
          "type": "uint256"
        }
      ],
      "name": "deleteElection",
      "outputs": [],
      "stateMutability": "nonpayable",
      "type": "function"
    }
  ],
  "bytecode": "0x608060405260006001553480156200001657600080fd5b50336000806101000a81548173ffffffffffffffffffffffffffffffffffffffff021916908373ffffffffffffffffffffffffffffffffffffffff1602179055506200009d6040518060400160405280601081526020017f44656661756c7420456c656374696f6e00000000000000000000000000000000815250620000a360201b60201c565b62000447565b60008054906101000a900473ffffffffffffffffffffffffffffffffffffffff1673ffffffffffffffffffffffffffffffffffffffff163373ffffffffffffffffffffffffffffffffffffffff161462000134576040517f08c379a00000000000000000000000000000000000000000000000000000000081526004016200012b906200030c565b60405180910390fd5b6000600260006001548152602001908152602001600020905060015481600001819055508181600101908051906020019062000172929190620001d5565b5060008160020160006101000a81548160ff021916908360028111156200019e576200019d6200032e565b5b0217905550600081600401819055506000816006018190555060016000815480929190620001cc9062000396565b91905055505050565b828054620001e39062000412565b90600052602060002090601f01602090048101928262000207576000855562000253565b82601f106200022257805160ff191683800117855562000253565b8280016001018555821562000253579182015b828111156200025257825182559160200191906001019062000235565b5b50905062000262919062000266565b5090565b5b808211156200028157600081600090555060010162000267565b5090565b600082825260208201905092915050565b7f4f6e6c79206f776e65722063616e20706572666f726d2074686973206163746960008201527f6f6e000000000000000000000000000000000000000000000000000000000000602082015250565b6000620002f460228362000285565b9150620003018262000296565b604082019050919050565b600060208201905081810360008301526200032781620002e5565b9050919050565b7f4e487b7100000000000000000000000000000000000000000000000000000000600052602160045260246000fd5b7f4e487b7100000000000000000000000000000000000000000000000000000000600052601160045260246000fd5b6000819050919050565b6000620003a3826200038c565b91507fffffffffffffffffffffffffffffffffffffffffffffffffffffffffffffffff8203620003d857620003d76200035d565b5b600182019050919050565b7f4e487b7100000000000000000000000000000000000000000000000000000000600052602260045260246000fd5b600060028204905060018216806200042b57607f821691505b602082108103620004415762000440620003e3565b5b50919050565b6123cb80620004576000396000f3fe608060405234801561001057600080fd5b50600436106100cf5760003560e01c80637fd5f2681161008c578063997d283011610066578063997d2830146102025780639c98bcbb14610220578063b384abef1461023c578063e4801f3914610258576100cf565b80637fd5f268146101945780638da5cb5b146101b457806393552a3d146101d2576100cf565b806309391321146100d457806315cf4a5f146100f05780631750a3d01461010c5780635e6fef01146101285780636d32dc4b1461015c578063740c47d414610178575b600080fd5b6100ee60048036038101906100e991906115e4565b610289565b005b61010a6004803603810190610105919061176a565b610508565b005b610126600480360381019061012191906117b3565b610630565b005b610142600480360381019061013d919061180f565b6107ed565b60405161015395949392919061194a565b60405180910390f35b6101766004803603810190610171919061180f565b6108b8565b005b610192600480360381019061018d919061180f565b610a12565b005b61019c610b7e565b6040516101ab93929190611c2c565b60405180910390f35b6101bc610e03565b6040516101c99190611c87565b60405180910390f35b6101ec60048036038101906101e791906115e4565b610e27565b6040516101f99190611ca2565b60405180910390f35b61020a610f09565b6040516102179190611ca2565b60405180910390f35b61023a6004803603810190610235919061180f565b610f0f565b005b61025660048036038101906102519190611cbd565b611068565b005b610272600480360381019061026d9190611cbd565b611330565b604051610280929190611cfd565b60405180910390f35b60008054906101000a900473ffffffffffffffffffffffffffffffffffffffff1673ffffffffffffffffffffffffffffffffffffffff163373ffffffffffffffffffffffffffffffffffffffff1614610317576040517f08c379a000000000000000000000000000000000000000000000000000000000815260040161030e90611d9f565b60405180910390fd5b6000600281111561032b5761032a6118d3565b5b6002600084815260200190815260200160002060020160009054906101000a900460ff166002811115610361576103606118d3565b5b146103a1576040517f08c379a000000000000000000000000000000000000000000000000000000000815260040161039890611e31565b60405180910390fd5b60006002600084815260200190815260200160002090508060050160008373ffffffffffffffffffffffffffffffffffffffff1673ffffffffffffffffffffffffffffffffffffffff16815260200190815260200160002060000160019054906101000a900460ff161561044a576040517f08c379a000000000000000000000000000000000000000000000000000000000815260040161044190611e9d565b60405180910390fd5b6040518060400160405280600015158152602001600115158152508160050160008473ffffffffffffffffffffffffffffffffffffffff1673ffffffffffffffffffffffffffffffffffffffff16815260200190815260200160002060008201518160000160006101000a81548160ff02191690831515021790555060208201518160000160016101000a81548160ff0219169083151502179055509050508060060160008154809291906104fe90611eec565b9190505550505050565b60008054906101000a900473ffffffffffffffffffffffffffffffffffffffff1673ffffffffffffffffffffffffffffffffffffffff163373ffffffffffffffffffffffffffffffffffffffff1614610596576040517f08c379a000000000000000000000000000000000000000000000000000000000815260040161058d90611d9f565b60405180910390fd5b600060026000600154815260200190815260200160002090506001548160000181905550818160010190805190602001906105d2929190611459565b5060008160020160006101000a81548160ff021916908360028111156105fb576105fa6118d3565b5b021790555060008160040181905550600081600601819055506001600081548092919061062790611eec565b91905055505050565b60008054906101000a900473ffffffffffffffffffffffffffffffffffffffff1673ffffffffffffffffffffffffffffffffffffffff163373ffffffffffffffffffffffffffffffffffffffff16146106be576040517f08c379a00000000000000000000000000000000000000000000000000000000081526004016106b590611d9f565b60405180910390fd5b600060028111156106d2576106d16118d3565b5b6002600084815260200190815260200160002060020160009054906101000a900460ff166002811115610708576107076118d3565b5b14610748576040517f08c379a000000000000000000000000000000000000000000000000000000000815260040161073f90611fa6565b60405180910390fd5b6000600260008481526020019081526020016000209050600081600401549050604051806060016040528082815260200184815260200160008152508260030160008381526020019081526020016000206000820151816000015560208201518160010190805190602001906107bf929190611459565b50604082015181600201559050508160040160008154809291906107e290611eec565b919050555050505050565b600260205280600052604060002060009150905080600001549080600101805461081690611ff5565b80601f016020809104026020016040519081016040528092919081815260200182805461084290611ff5565b801561088f5780601f106108645761010080835404028352916020019161088f565b820191906000526020600020905b81548152906001019060200180831161087257829003601f168201915b5050505050908060020160009054906101000a900460ff16908060040154908060060154905085565b60008054906101000a900473ffffffffffffffffffffffffffffffffffffffff1673ffffffffffffffffffffffffffffffffffffffff163373ffffffffffffffffffffffffffffffffffffffff1614610946576040517f08c379a000000000000000000000000000000000000000000000000000000000815260040161093d90611d9f565b60405180910390fd5b6000600281111561095a576109596118d3565b5b6002600083815260200190815260200160002060020160009054906101000a900460ff1660028111156109905761098f6118d3565b5b146109d0576040517f08c379a00000000000000000000000000000000000000000000000000000000081526004016109c790612098565b60405180910390fd5b60016002600083815260200190815260200160002060020160006101000a81548160ff02191690836002811115610a0a57610a096118d3565b5b021790555050565b60008054906101000a900473ffffffffffffffffffffffffffffffffffffffff1673ffffffffffffffffffffffffffffffffffffffff163373ffffffffffffffffffffffffffffffffffffffff1614610aa0576040517f08c379a0000000000000000000000000000000000000000000000000000000008152600401610a9790611d9f565b60405180910390fd5b600280811115610ab357610ab26118d3565b5b6002600083815260200190815260200160002060020160009054906101000a900460ff166002811115610ae957610ae86118d3565b5b14610b29576040517f08c379a0000000000000000000000000000000000000000000000000000000008152600401610b209061212a565b60405180910390fd5b60026000828152602001908152602001600020600080820160009055600182016000610b5591906114df565b6002820160006101000a81549060ff021916905560048201600090556006820160009055505050565b6060806060600060015467ffffffffffffffff811115610ba157610ba061163f565b5b604051908082528060200260200182016040528015610bcf5781602001602082028036833780820191505090505b509050600060015467ffffffffffffffff811115610bf057610bef61163f565b5b604051908082528060200260200182016040528015610c2357816020015b6060815260200190600190039081610c0e5790505b509050600060015467ffffffffffffffff811115610c4457610c4361163f565b5b604051908082528060200260200182016040528015610c725781602001602082028036833780820191505090505b50905060005b600154811015610df1576002600082815260200190815260200160002060000154848281518110610cac57610cab61214a565b5b602002602001018181525050600260008281526020019081526020016000206001018054610cd990611ff5565b80601f0160208091040260200160405190810160405280929190818152602001828054610d0590611ff5565b8015610d525780601f10610d2757610100808354040283529160200191610d52565b820191906000526020600020905b815481529060010190602001808311610d3557829003601f168201915b5050505050838281518110610d6a57610d6961214a565b5b60200260200101819052506002600082815260200190815260200160002060020160009054906101000a900460ff16828281518110610dac57610dab61214a565b5b60200260200101906002811115610dc657610dc56118d3565b5b90816002811115610dda57610dd96118d3565b5b815250508080610de990611eec565b915050610c78565b50828282955095509550505050909192565b60008054906101000a900473ffffffffffffffffffffffffffffffffffffffff1681565b60008060026000858152602001908152602001600020905060008054906101000a900473ffffffffffffffffffffffffffffffffffffffff1673ffffffffffffffffffffffffffffffffffffffff168373ffffffffffffffffffffffffffffffffffffffff1603610e9c576001915050610f03565b8060050160008473ffffffffffffffffffffffffffffffffffffffff1673ffffffffffffffffffffffffffffffffffffffff16815260200190815260200160002060000160019054906101000a900460ff1615610efd576002915050610f03565b60039150505b92915050565b60015481565b60008054906101000a900473ffffffffffffffffffffffffffffffffffffffff1673ffffffffffffffffffffffffffffffffffffffff163373ffffffffffffffffffffffffffffffffffffffff1614610f9d576040517f08c379a0000000000000000000000000000000000000000000000000000000008152600401610f9490611d9f565b60405180910390fd5b60016002811115610fb157610fb06118d3565b5b6002600083815260200190815260200160002060020160009054906101000a900460ff166002811115610fe757610fe66118d3565b5b14611027576040517f08c379a000000000000000000000000000000000000000000000000000000000815260040161101e906121c5565b60405180910390fd5b600280600083815260200190815260200160002060020160006101000a81548160ff021916908360028111156110605761105f6118d3565b5b021790555050565b6001600281111561107c5761107b6118d3565b5b6002600084815260200190815260200160002060020160009054906101000a900460ff1660028111156110b2576110b16118d3565b5b146110f2576040517f08c379a00000000000000000000000000000000000000000000000000000000081526004016110e990612231565b60405180910390fd5b60006002600084815260200190815260200160002090508060050160003373ffffffffffffffffffffffffffffffffffffffff1673ffffffffffffffffffffffffffffffffffffffff16815260200190815260200160002060000160019054906101000a900460ff1661119a576040517f08c379a00000000000000000000000000000000000000000000000000000000081526004016111919061229d565b60405180910390fd5b8060050160003373ffffffffffffffffffffffffffffffffffffffff1673ffffffffffffffffffffffffffffffffffffffff16815260200190815260200160002060000160009054906101000a900460ff161561122c576040517f08c379a000000000000000000000000000000000000000000000000000000000815260040161122390612309565b60405180910390fd5b80600401548210611272576040517f08c379a000000000000000000000000000000000000000000000000000000000815260040161126990612375565b60405180910390fd5b806003016000838152602001908152602001600020600201600081548092919061129b90611eec565b919050555060018160050160003373ffffffffffffffffffffffffffffffffffffffff1673ffffffffffffffffffffffffffffffffffffffff16815260200190815260200160002060000160006101000a81548160ff02191690831515021790555081837f5d4760119c8e8650149aac097d38c70515dfce015031561ad115606533e479be60405160405180910390a3505050565b606060008060026000868152602001908152602001600020905080600401548410611390576040517f08c379a000000000000000000000000000000000000000000000000000000000815260040161138790612375565b60405180910390fd5b806003016000858152602001908152602001600020600101816003016000868152602001908152602001600020600201548180546113cd90611ff5565b80601f01602080910402602001604051908101604052809291908181526020018280546113f990611ff5565b80156114465780601f1061141b57610100808354040283529160200191611446565b820191906000526020600020905b81548152906001019060200180831161142957829003601f168201915b5050505050915092509250509250929050565b82805461146590611ff5565b90600052602060002090601f01602090048101928261148757600085556114ce565b82601f106114a057805160ff19168380011785556114ce565b828001600101855582156114ce579182015b828111156114cd5782518255916020019190600101906114b2565b5b5090506114db919061151f565b5090565b5080546114eb90611ff5565b6000825580601f106114fd575061151c565b601f01602090049060005260206000209081019061151b919061151f565b5b50565b5b80821115611538576000816000905550600101611520565b5090565b6000604051905090565b600080fd5b600080fd5b6000819050919050565b61156381611550565b811461156e57600080fd5b50565b6000813590506115808161155a565b92915050565b600073ffffffffffffffffffffffffffffffffffffffff82169050919050565b60006115b182611586565b9050919050565b6115c1816115a6565b81146115cc57600080fd5b50565b6000813590506115de816115b8565b92915050565b600080604083850312156115fb576115fa611546565b5b600061160985828601611571565b925050602061161a858286016115cf565b9150509250929050565b600080fd5b600080fd5b6000601f19601f8301169050919050565b7f4e487b7100000000000000000000000000000000000000000000000000000000600052604160045260246000fd5b6116778261162e565b810181811067ffffffffffffffff821117156116965761169561163f565b5b80604052505050565b60006116a961153c565b90506116b5828261166e565b919050565b600067ffffffffffffffff8211156116d5576116d461163f565b5b6116de8261162e565b9050602081019050919050565b82818337600083830152505050565b600061170d611708846116ba565b61169f565b90508281526020810184848401111561172957611728611629565b5b6117348482856116eb565b509392505050565b600082601f83011261175157611750611624565b5b81356117618482602086016116fa565b91505092915050565b6000602082840312156117805761177f611546565b5b600082013567ffffffffffffffff81111561179e5761179d61154b565b5b6117aa8482850161173c565b91505092915050565b600080604083850312156117ca576117c9611546565b5b60006117d885828601611571565b925050602083013567ffffffffffffffff8111156117f9576117f861154b565b5b6118058582860161173c565b9150509250929050565b60006020828403121561182557611824611546565b5b600061183384828501611571565b91505092915050565b61184581611550565b82525050565b600081519050919050565b600082825260208201905092915050565b60005b8381101561188557808201518184015260208101905061186a565b83811115611894576000848401525b50505050565b60006118a58261184b565b6118af8185611856565b93506118bf818560208601611867565b6118c88161162e565b840191505092915050565b7f4e487b7100000000000000000000000000000000000000000000000000000000600052602160045260246000fd5b60038110611913576119126118d3565b5b50565b600081905061192482611902565b919050565b600061193482611916565b9050919050565b61194481611929565b82525050565b600060a08201905061195f600083018861183c565b8181036020830152611971818761189a565b9050611980604083018661193b565b61198d606083018561183c565b61199a608083018461183c565b9695505050505050565b600081519050919050565b600082825260208201905092915050565b6000819050602082019050919050565b6119d981611550565b82525050565b60006119eb83836119d0565b60208301905092915050565b6000602082019050919050565b6000611a0f826119a4565b611a1981856119af565b9350611a24836119c0565b8060005b83811015611a55578151611a3c88826119df565b9750611a47836119f7565b925050600181019050611a28565b5085935050505092915050565b600081519050919050565b600082825260208201905092915050565b6000819050602082019050919050565b600082825260208201905092915050565b6000611aaa8261184b565b611ab48185611a8e565b9350611ac4818560208601611867565b611acd8161162e565b840191505092915050565b6000611ae48383611a9f565b905092915050565b6000602082019050919050565b6000611b0482611a62565b611b0e8185611a6d565b935083602082028501611b2085611a7e565b8060005b85811015611b5c5784840389528151611b3d8582611ad8565b9450611b4883611aec565b925060208a01995050600181019050611b24565b50829750879550505050505092915050565b600081519050919050565b600082825260208201905092915050565b6000819050602082019050919050565b611ba381611929565b82525050565b6000611bb58383611b9a565b60208301905092915050565b6000602082019050919050565b6000611bd982611b6e565b611be38185611b79565b9350611bee83611b8a565b8060005b83811015611c1f578151611c068882611ba9565b9750611c1183611bc1565b925050600181019050611bf2565b5085935050505092915050565b60006060820190508181036000830152611c468186611a04565b90508181036020830152611c5a8185611af9565b90508181036040830152611c6e8184611bce565b9050949350505050565b611c81816115a6565b82525050565b6000602082019050611c9c6000830184611c78565b92915050565b6000602082019050611cb7600083018461183c565b92915050565b60008060408385031215611cd457611cd3611546565b5b6000611ce285828601611571565b9250506020611cf385828601611571565b9150509250929050565b60006040820190508181036000830152611d17818561189a565b9050611d26602083018461183c565b9392505050565b7f4f6e6c79206f776e65722063616e20706572666f726d2074686973206163746960008201527f6f6e000000000000000000000000000000000000000000000000000000000000602082015250565b6000611d89602283611856565b9150611d9482611d2d565b604082019050919050565b60006020820190508181036000830152611db881611d7c565b9050919050565b7f43616e6e6f742061646420766f7465727320616674657220656c656374696f6e60008201527f2073746172746564000000000000000000000000000000000000000000000000602082015250565b6000611e1b602883611856565b9150611e2682611dbf565b604082019050919050565b60006020820190508181036000830152611e4a81611e0e565b9050919050565b7f566f74657220616c726561647920616464656400000000000000000000000000600082015250565b6000611e87601383611856565b9150611e9282611e51565b602082019050919050565b60006020820190508181036000830152611eb681611e7a565b9050919050565b7f4e487b7100000000000000000000000000000000000000000000000000000000600052601160045260246000fd5b6000611ef782611550565b91507fffffffffffffffffffffffffffffffffffffffffffffffffffffffffffffffff8203611f2957611f28611ebd565b5b600182019050919050565b7f43616e6e6f74206164642063616e6469646174657320616674657220656c656360008201527f74696f6e20737461727465640000000000000000000000000000000000000000602082015250565b6000611f90602c83611856565b9150611f9b82611f34565b604082019050919050565b60006020820190508181036000830152611fbf81611f83565b9050919050565b7f4e487b7100000000000000000000000000000000000000000000000000000000600052602260045260246000fd5b6000600282049050600182168061200d57607f821691505b6020821081036120205761201f611fc6565b5b50919050565b7f456c656374696f6e20616c72656164792073746172746564206f7220656e646560008201527f6400000000000000000000000000000000000000000000000000000000000000602082015250565b6000612082602183611856565b915061208d82612026565b604082019050919050565b600060208201905081810360008301526120b181612075565b9050919050565b7f4f6e6c7920656e64656420656c656374696f6e732063616e2062652064656c6560008201527f7465640000000000000000000000000000000000000000000000000000000000602082015250565b6000612114602383611856565b915061211f826120b8565b604082019050919050565b6000602082019050818103600083015261214381612107565b9050919050565b7f4e487b7100000000000000000000000000000000000000000000000000000000600052603260045260246000fd5b7f456c656374696f6e206e6f7420696e2070726f67726573730000000000000000600082015250565b60006121af601883611856565b91506121ba82612179565b602082019050919050565b600060208201905081810360008301526121de816121a2565b9050919050565b7f456c656374696f6e206973206e6f7420696e2070726f67726573730000000000600082015250565b600061221b601b83611856565b9150612226826121e5565b602082019050919050565b6000602082019050818103600083015261224a8161220e565b9050919050565b7f596f7520617265206e6f7420616e20617574686f72697a656420766f74657200600082015250565b6000612287601f83611856565b915061229282612251565b602082019050919050565b600060208201905081810360008301526122b68161227a565b9050919050565b7f596f75206861766520616c726561647920766f74656400000000000000000000600082015250565b60006122f3601683611856565b91506122fe826122bd565b602082019050919050565b60006020820190508181036000830152612322816122e6565b9050919050565b7f496e76616c69642063616e646964617465204944000000000000000000000000600082015250565b600061235f601483611856565b915061236a82612329565b602082019050919050565b6000602082019050818103600083015261238e81612352565b905091905056fea26469706673582212207c0e759956821eb04ff2d9950b382e8494ad3571ddd470a7077b43413af9290264736f6c634300080e0033",
  "immutableReferences": {},
  "source": "// SPDX-License-Identifier: MIT\npragma solidity >=0.4.0 <0.9.0;\n\ncontract Election {\n    enum ElectionState {\n        NotStarted,\n        InProgress,\n        Ended\n    }\n\n    struct Candidate {\n        uint256 id;\n        string name;\n        uint256 voteCount;\n    }\n\n    struct Voter {\n        bool hasVoted;\n        bool isAuthorized;\n    }\n\n    struct ElectionInstance {\n        uint256 id;\n        string name;\n        ElectionState state;\n        mapping(uint256 => Candidate) candidates;\n        uint256 candidatesCount;\n        mapping(address => Voter) voters;\n        uint256 votersCount;\n    }\n\n    address public owner;\n    uint256 public electionCount = 0;\n    mapping(uint256 => ElectionInstance) public elections;\n\n    constructor() {\n        owner = msg.sender;\n        createElection(\"Default Election\");\n    }\n\n    modifier onlyOwner() {\n        require(msg.sender == owner, \"Only owner can perform this action\");\n        _;\n    }\n\n    event VoteCasted(uint256 indexed electionId, uint256 indexed candidateId);\n\n    function createElection(string memory _name) public onlyOwner {\n        ElectionInstance storage newElection = elections[electionCount];\n        newElection.id = electionCount;\n        newElection.name = _name;\n        newElection.state = ElectionState.NotStarted;\n        newElection.candidatesCount = 0;\n        newElection.votersCount = 0;\n\n        electionCount++;\n    }\n\n    function addCandidate(uint256 electionId, string memory _name) public onlyOwner {\n        require(elections[electionId].state == ElectionState.NotStarted, \"Cannot add candidates after election started\");\n\n        ElectionInstance storage election = elections[electionId];\n        uint256 candidateId = election.candidatesCount;\n        election.candidates[candidateId] = Candidate(candidateId, _name, 0);\n        election.candidatesCount++;\n    }\n\n    function addVoter(uint256 electionId, address _voter) public onlyOwner {\n        require(elections[electionId].state == ElectionState.NotStarted, \"Cannot add voters after election started\");\n\n        ElectionInstance storage election = elections[electionId];\n        require(!election.voters[_voter].isAuthorized, \"Voter already added\");\n\n        election.voters[_voter] = Voter(false, true);\n        election.votersCount++;\n\n    }\n\n    function startElection(uint256 electionId) public onlyOwner {\n        require(elections[electionId].state == ElectionState.NotStarted, \"Election already started or ended\");\n\n        elections[electionId].state = ElectionState.InProgress;\n    }\n\n    function endElection(uint256 electionId) public onlyOwner {\n        require(elections[electionId].state == ElectionState.InProgress, \"Election not in progress\");\n\n        elections[electionId].state = ElectionState.Ended;\n    }\n\n    function vote(uint256 electionId, uint256 _candidateId) public {\n        require(elections[electionId].state == ElectionState.InProgress, \"Election is not in progress\");\n        ElectionInstance storage election = elections[electionId];\n\n        require(election.voters[msg.sender].isAuthorized, \"You are not an authorized voter\");\n        require(!election.voters[msg.sender].hasVoted, \"You have already voted\");\n        require(_candidateId < election.candidatesCount, \"Invalid candidate ID\");\n\n        election.candidates[_candidateId].voteCount++;\n        election.voters[msg.sender].hasVoted = true;\n\n        emit VoteCasted(electionId, _candidateId);\n    }\n\n    function getCandidateDetails(uint256 electionId, uint256 _candidateId)\n        public\n        view\n        returns (string memory, uint256)\n    {\n        ElectionInstance storage election = elections[electionId];\n        require(_candidateId < election.candidatesCount, \"Invalid candidate ID\");\n\n        return (\n            election.candidates[_candidateId].name,\n            election.candidates[_candidateId].voteCount\n        );\n    }\n\n\n    function getRole(uint256 electionId, address _current) public view returns (uint256) {\n        ElectionInstance storage election = elections[electionId];\n\n        if (_current == owner) {\n            return 1; // Owner\n        } else if (election.voters[_current].isAuthorized) {\n            return 2; // Voter\n        } else {\n            return 3; // Unauthorized\n        }\n    }\n\n    // Retrieve details of all elections\n    function getAllElections() public view returns (uint256[] memory, string[] memory, ElectionState[] memory) {\n        uint256[] memory ids = new uint256[](electionCount);\n        string[] memory names = new string[](electionCount);\n        ElectionState[] memory states = new ElectionState[](electionCount);\n\n        for (uint256 i = 0; i < electionCount; i++) {\n            ids[i] = elections[i].id;\n            names[i] = elections[i].name;\n            states[i] = elections[i].state;\n        }\n\n        return (ids, names, states);\n    }\n\n    // Delete an election if it is in the 'Ended' state\n    function deleteElection(uint256 electionId) public onlyOwner {\n        require(elections[electionId].state == ElectionState.Ended, \"Only ended elections can be deleted\");\n        delete elections[electionId];\n    }\n\n}\n",
  "sourcePath": "/Users/divyadhara/Documents/Project_2_blockchain/decentralized-voting-system/contracts/Voting.sol",
  "compiler": {
    "name": "solc",
    "version": "0.8.14+commit.80d49f37.Emscripten.clang"
  },
  "schemaVersion": "3.4.16",
  "updatedAt": "2024-05-05T19:37:31.935Z",
  "networkType": "ethereum",
  "devdoc": {
    "kind": "dev",
    "methods": {},
    "version": 1
  },
  "userdoc": {
    "kind": "user",
    "methods": {},
    "version": 1
  }
}